{
  "contractName": "Lottery",
  "abi": [
    {
      "constant": true,
      "inputs": [],
      "name": "beneficiary",
      "outputs": [
        {
          "name": "",
          "type": "address"
        }
      ],
      "payable": false,
      "stateMutability": "view",
      "type": "function"
    },
    {
      "constant": true,
      "inputs": [
        {
          "name": "",
          "type": "address"
        }
      ],
      "name": "playersMap",
      "outputs": [
        {
          "name": "",
          "type": "bool"
        }
      ],
      "payable": false,
      "stateMutability": "view",
      "type": "function"
    },
    {
      "constant": true,
      "inputs": [],
      "name": "rewards",
      "outputs": [
        {
          "name": "",
          "type": "uint256"
        }
      ],
      "payable": false,
      "stateMutability": "view",
      "type": "function"
    },
    {
      "constant": true,
      "inputs": [],
      "name": "isLotteryClosed",
      "outputs": [
        {
          "name": "",
          "type": "bool"
        }
      ],
      "payable": false,
      "stateMutability": "view",
      "type": "function"
    },
    {
      "constant": true,
      "inputs": [],
      "name": "playerEther",
      "outputs": [
        {
          "name": "",
          "type": "uint256"
        }
      ],
      "payable": false,
      "stateMutability": "view",
      "type": "function"
    },
    {
      "constant": true,
      "inputs": [
        {
          "name": "",
          "type": "uint256"
        }
      ],
      "name": "players",
      "outputs": [
        {
          "name": "",
          "type": "address"
        }
      ],
      "payable": false,
      "stateMutability": "view",
      "type": "function"
    },
    {
      "inputs": [],
      "payable": false,
      "stateMutability": "nonpayable",
      "type": "constructor"
    },
    {
      "payable": true,
      "stateMutability": "payable",
      "type": "fallback"
    },
    {
      "anonymous": false,
      "inputs": [
        {
          "indexed": false,
          "name": "recipient",
          "type": "address"
        },
        {
          "indexed": false,
          "name": "totalAmountRaised",
          "type": "uint256"
        }
      ],
      "name": "GoalReached",
      "type": "event"
    },
    {
      "anonymous": false,
      "inputs": [
        {
          "indexed": false,
          "name": "backer",
          "type": "address"
        },
        {
          "indexed": false,
          "name": "amount",
          "type": "uint256"
        },
        {
          "indexed": false,
          "name": "isContribution",
          "type": "bool"
        }
      ],
      "name": "FundTransfer",
      "type": "event"
    },
    {
      "constant": false,
      "inputs": [],
      "name": "safeWithdrawal",
      "outputs": [],
      "payable": false,
      "stateMutability": "nonpayable",
      "type": "function"
    }
  ],
  "bytecode": "0x6080604052662386f26fc100006004556000600660006101000a81548160ff02191690831515021790555034801561003657600080fd5b506100546001430360656100a3640100000000026401000000009004565b61271001600581905550336000806101000a81548173ffffffffffffffffffffffffffffffffffffffff021916908373ffffffffffffffffffffffffffffffffffffffff160217905550610149565b600081600343038460405160200180838152602001828152602001925050506040516020818303038152906040526040518082805190602001908083835b60208310151561010657805182526020820191506020810190506020830392506100e1565b6001836020036101000a03801982511681845116808217855250505050505090500191505060405180910390206001900481151561014057fe5b06905092915050565b610aed806101586000396000f300608060405260043610610083576000357c0100000000000000000000000000000000000000000000000000000000900463ffffffff16806338af3eed1461033d578063979215de146103945780639ec5a894146103ef578063b8af21b91461041a578063ebcfd92214610449578063f71d96cb14610474578063fd6b7ef8146104e1575b600660009054906101000a900460ff161580156100a1575060045434145b151561013b576040517f08c379a00000000000000000000000000000000000000000000000000000000081526004018080602001828103825260408152602001807f4c6f74746572792073686f756c64206e6f7420626520636c6f73656420616e6481526020017f20706c617965722073686f756c642073656e642065786163742065746865727381525060400191505060405180910390fd5b600260003373ffffffffffffffffffffffffffffffffffffffff1673ffffffffffffffffffffffffffffffffffffffff16815260200190815260200160002060009054906101000a900460ff161515156101fd576040517f08c379a000000000000000000000000000000000000000000000000000000000815260040180806020018281038252601e8152602001807f706c617965722073686f756c64206e6f7420617474656e64207477696365000081525060200191505060405180910390fd5b60033390806001815401808255809150509060018203906000526020600020016000909192909190916101000a81548173ffffffffffffffffffffffffffffffffffffffff021916908373ffffffffffffffffffffffffffffffffffffffff160217905550506001600260003373ffffffffffffffffffffffffffffffffffffffff1673ffffffffffffffffffffffffffffffffffffffff16815260200190815260200160002060006101000a81548160ff0219169083151502179055507fe842aea7a5f1b01049d752008c53c52890b1a6daf660cf39e8eec506112bbdf633346001604051808473ffffffffffffffffffffffffffffffffffffffff1673ffffffffffffffffffffffffffffffffffffffff16815260200183815260200182151515158152602001935050505060405180910390a161033b6104f8565b005b34801561034957600080fd5b50610352610665565b604051808273ffffffffffffffffffffffffffffffffffffffff1673ffffffffffffffffffffffffffffffffffffffff16815260200191505060405180910390f35b3480156103a057600080fd5b506103d5600480360381019080803573ffffffffffffffffffffffffffffffffffffffff16906020019092919050505061068b565b604051808215151515815260200191505060405180910390f35b3480156103fb57600080fd5b506104046106ab565b6040518082815260200191505060405180910390f35b34801561042657600080fd5b5061042f6106b1565b604051808215151515815260200191505060405180910390f35b34801561045557600080fd5b5061045e6106c4565b6040518082815260200191505060405180910390f35b34801561048057600080fd5b5061049f600480360381019080803590602001909291905050506106ca565b604051808273ffffffffffffffffffffffffffffffffffffffff1673ffffffffffffffffffffffffffffffffffffffff16815260200191505060405180910390f35b3480156104ed57600080fd5b506104f6610708565b005b600080600554600380549050101515610661576001600660006101000a81548160ff021916908315150217905550600380549050915061053b6002430383610a1b565b905060038181548110151561054c57fe5b9060005260206000200160009054906101000a900473ffffffffffffffffffffffffffffffffffffffff16600160006101000a81548173ffffffffffffffffffffffffffffffffffffffff021916908373ffffffffffffffffffffffffffffffffffffffff160217905550600560048360045402028115156105ca57fe5b046007819055507fec3f991caf7857d61663fd1bba1739e04abd4781238508cde554bb849d790c85600160009054906101000a900473ffffffffffffffffffffffffffffffffffffffff16600754604051808373ffffffffffffffffffffffffffffffffffffffff1673ffffffffffffffffffffffffffffffffffffffff1681526020018281526020019250505060405180910390a15b5050565b600160009054906101000a900473ffffffffffffffffffffffffffffffffffffffff1681565b60026020528060005260406000206000915054906101000a900460ff1681565b60075481565b600660009054906101000a900460ff1681565b60045481565b6003818154811015156106d957fe5b906000526020600020016000915054906101000a900473ffffffffffffffffffffffffffffffffffffffff1681565b6000600554600380549050101515610a1857600660009054906101000a900460ff16801561078357503373ffffffffffffffffffffffffffffffffffffffff16600160009054906101000a900473ffffffffffffffffffffffffffffffffffffffff1673ffffffffffffffffffffffffffffffffffffffff16145b1561089057600160009054906101000a900473ffffffffffffffffffffffffffffffffffffffff1673ffffffffffffffffffffffffffffffffffffffff166108fc6007549081150290604051600060405180830381858888f193505050501580156107f2573d6000803e3d6000fd5b507fe842aea7a5f1b01049d752008c53c52890b1a6daf660cf39e8eec506112bbdf6600160009054906101000a900473ffffffffffffffffffffffffffffffffffffffff166007546000604051808473ffffffffffffffffffffffffffffffffffffffff1673ffffffffffffffffffffffffffffffffffffffff16815260200183815260200182151515158152602001935050505060405180910390a15b600660009054906101000a900460ff1680156108f857503373ffffffffffffffffffffffffffffffffffffffff166000809054906101000a900473ffffffffffffffffffffffffffffffffffffffff1673ffffffffffffffffffffffffffffffffffffffff16145b15610a175760056003805490506004540281151561091257fe5b0490506000809054906101000a900473ffffffffffffffffffffffffffffffffffffffff1673ffffffffffffffffffffffffffffffffffffffff166108fc829081150290604051600060405180830381858888f1935050505015801561097c573d6000803e3d6000fd5b507fe842aea7a5f1b01049d752008c53c52890b1a6daf660cf39e8eec506112bbdf66000809054906101000a900473ffffffffffffffffffffffffffffffffffffffff16826000604051808473ffffffffffffffffffffffffffffffffffffffff1673ffffffffffffffffffffffffffffffffffffffff16815260200183815260200182151515158152602001935050505060405180910390a15b5b50565b600081600343038460405160200180838152602001828152602001925050506040516020818303038152906040526040518082805190602001908083835b602083101515610a7e5780518252602082019150602081019050602083039250610a59565b6001836020036101000a038019825116818451168082178552505050505050905001915050604051809103902060019004811515610ab857fe5b069050929150505600a165627a7a72305820dad941b3789d735e4f7abebcc2b19ed41c0c771783dfbf662d68840ee3dc4a010029",
  "source": "pragma solidity ^0.4.22;\n\ncontract Lottery {\n\n  address owner;\n  address public beneficiary;\n  mapping(address => bool) public playersMap;\n  address[] public players;\n  // uint public playerCount = 0;\n  uint public playerEther = 0.01 ether;\n  uint playerCountGoal;\n  bool public isLotteryClosed = false;\n  uint public rewards;\n\n  event GoalReached(address recipient, uint totalAmountRaised);\n  event FundTransfer(address backer, uint amount, bool isContribution);\n\n  constructor() public {\n    // playerCountGoal will be in [10000, 10100]\n    playerCountGoal = 10000 + randomGen(block.number - 1, 101);\n    owner = msg.sender;\n  }\n\n  /**\n    * Fallback function\n    *\n    * The function without name is the default function that is called whenever anyone sends funds to a contract\n    */\n  function () public payable {\n    require(!isLotteryClosed && msg.value == playerEther, \"Lottery should not be closed and player should send exact ethers\");\n    require(!playersMap[msg.sender], \"player should not attend twice\");\n    players.push(msg.sender);\n    playersMap[msg.sender] = true;\n    \n    emit FundTransfer(msg.sender, msg.value, true);\n\n    checkGoalReached();\n  }\n\n  modifier afterGoalReached() { \n    if (players.length >= playerCountGoal) _; \n  }\n\n  function checkGoalReached() internal afterGoalReached {\n    isLotteryClosed = true;\n    uint playerCount = players.length;\n\n    // calculate the rewards\n    uint winnerIndex = randomGen(block.number - 2, playerCount);\n    beneficiary = players[winnerIndex];\n    rewards = playerEther * playerCount * 4 / 5;\n\n    emit GoalReached(beneficiary, rewards);\n  }\n\n  /* Generates a random number from 0 to 100 based on the last block hash */\n  function randomGen(uint seed, uint count) private view returns (uint randomNumber) {\n    return uint(keccak256(abi.encodePacked(block.number-3, seed))) % count;\n  }\n\n  function safeWithdrawal() public afterGoalReached {\n    if (isLotteryClosed && beneficiary == msg.sender) {\n      beneficiary.transfer(rewards);\n      emit FundTransfer(beneficiary, rewards, false);\n    }\n\n    if (isLotteryClosed && owner == msg.sender) {\n      uint fee = playerEther * players.length / 5;\n      owner.transfer(fee);\n      emit FundTransfer(owner, fee, false);\n    }\n  }\n}\n",
  "sourcePath": "/Users/chenwei/Documents/ethdev/workspaces/lottery/contracts/Lottery.sol",
  "compiler": {
    "name": "solc",
    "version": "0.4.24+commit.e67f0147.Emscripten.clang"
  },
  "schemaVersion": "2.0.1",
  "updatedAt": "2018-08-07T03:41:31.041Z"
}